:020000040800F2
:1000000000080020813200085D2F00085F2F0008E3
:1000100000000000000000000000000000000000E0
:10002000000000000000000000000000612F000838
:100030000000000000000000632F0008652F00088A
:10004000F1320008F1320008F1320008F132000804
:10005000F1320008F1320008F13200086D2F00087B
:1000600000000000A92F0008F1320008F13200085A
:10007000F1320008B92F000800000000F13200083A
:100080000000000000000000000000000000000070
:10009000393000080000000000000000F1320008C4
:1000A00000000000F1320008000000000000000025
:1000B000F1320008F13200080000000000000000EA
:1000C00010B5064C2378002B07D1054B002B02D02E
:1000D000044800E000BF0123237010BD040000208D
:1000E000000000004C330008044B10B5002B03D077
:1000F0000349044800E000BF10BDC04600000000F6
:10010000080000204C330008002243088B4274D3BF
:1001100003098B425FD3030A8B4244D3030B8B4208
:1001200028D3030C8B420DD3FF22090212BA030C11
:100130008B4202D31212090265D0030B8B4219D3F2
:1001400000E0090AC30B8B4201D3CB03C01A524112
:10015000830B8B4201D38B03C01A5241430B8B425A
:1001600001D34B03C01A5241030B8B4201D30B0343
:10017000C01A5241C30A8B4201D3CB02C01A52416A
:10018000830A8B4201D38B02C01A5241430A8B422D
:1001900001D34B02C01A5241030A8B4201D30B0216
:1001A000C01A5241CDD2C3098B4201D3CB01C01A30
:1001B000524183098B4201D38B01C01A524143093A
:1001C0008B4201D34B01C01A524103098B4201D328
:1001D0000B01C01A5241C3088B4201D3CB00C01A95
:1001E000524183088B4201D38B00C01A524143080D
:1001F0008B4201D34B00C01A5241411A00D2014632
:10020000524110467047FFE701B5002000F006F8A4
:1002100002BDC0460029F7D076E770477047C04658
:1002200070B500220C4B04000D0000F04DFE0028BC
:1002300004D12000290000F0A7FD70BD064B00226C
:100240002000290000F08AFA00F09EFD80231B06A2
:100250009C466044F1E7C0460000E041F0B55746D7
:100260004546DE464E46E0B50C0398464E00230B4D
:1002700087B0070092469B46760DCD0F002E6BD0BF
:100280006D4B9E4235D080245B46420F2404DB0038
:1002900014431C43C3009946684BA3469C46002365
:1002A00000276644029343461C035A00DB0F504666
:1002B000240B520D984600D176E05F4B9A426DD0E8
:1002C0008023410F1B040B435C49E4008C461C4314
:1002D000C300002062444146B6186940721C019177
:1002E000944607430F2F00D9B0E0554ABF00D259BA
:1002F00097465B460343994600D087E000239B4620
:10030000023308270293CEE742460192022867D0C3
:10031000032800D10EE2012800D062E1002300246E
:100320000022994601990140CDB2002112030B0D24
:10033000120B1B051343434A240513401C4364005E
:10034000ED0764082C434846210007B03CBC9046AA
:100350009946A246AB46F0BD034399464FD05B4653
:10036000002B00D189E1584600F0B8FD03000B3B9B
:100370001C2B00DD7AE11D22D31A3A0001005C46F5
:10038000DA4008398C4013008F4023439B46B9461E
:1003900000232D4E0027361A029384E75346234349
:1003A0002AD10024022096E75346234320D0002C74
:1003B00000D157E1200000F091FD03000B3B1C2B06
:1003C00000DD49E11D21CB1A51460200D9405346B8
:1003D000083A944093400C431B4A121A00207AE7D3
:1003E0000125019B144C1D400023002299469CE7E7
:1003F0000024002201206EE7534603206BE7002310
:100400009B4601330427002602934CE703238146D1
:100410000C27029347E78022002300251203994608
:10042000054C82E75C464B4602986FE75C464B46BC
:10043000019502986AE7C046FF07000001FCFFFF34
:1004400064330008FFFF0F800DFCFFFF4A4649465A
:10045000170C1A0C1B041B0C08041900000C414358
:100460001500884619007D43794303958946290084
:10047000150045434D44029545462D0CAA46029D64
:100480005544A94506D98A46802149028946CA446D
:1004900051460391290C0491414609042D04090C8D
:1004A00088462900250C24044144240C0591210090
:1004B00041438846210079438A4668434146504477
:1004C0008146080C48446F43824503D98021490284
:1004D00089464F44010C89463900494402914146FE
:1004E0000F0404993F0C88460004C019804441461B
:1004F000049159460F0C0904090C884659438A4651
:1005000039005143894641464A435146090C8B46BE
:100510007B43D2185A44934203D980235B029B4603
:10052000D94451460904090C8A46414661437C433B
:10053000130C12044B445244A1468A463C004146E7
:100540006C434D4351464D440F0C7D19A94503D9C9
:100550008021490288464444049F0399B846414497
:100560008B468345804141428846514608042F040A
:10057000000C3F1858460299101889469042924143
:100580004F44BA46524299469346C244D144CB4462
:100590008F42BF41C245894199459B419345924154
:1005A0007F4249422D0C52420F435B4213437F1955
:1005B000FF185B463C19DB0D059A64021C4343029D
:1005C00013435D1EAB415A46C00D03435202134311
:1005D000E20156D501205A0803401343E2071343B2
:1005E00064085A48604400284DDD5A0709D00F229C
:1005F0001A40042A05D01A1D9A429B415B42E41816
:100600001300E20104D58020514AC0001440604428
:10061000504A904200DDE3E60125DB0862071A43F9
:100620006402019B9146220B4405640D1D407CE64B
:10063000802259461203114208D0144206D12243A7
:100640001203120B45469946434C6EE65B461A432D
:100650001203120B404C68E603005446283B9C40B2
:100660000023B9E600F03AFC2030A6E60300283B60
:100670009F400023BB4699468AE600F02FFC2030BD
:1006800074E6B446ADE701252A1A382A06DD019B37
:1006900000241D4000230022994646E61F2A21DC43
:1006A00020252000AD1A1E00AB40A840D6405D1E9C
:1006B000AB4130431843D440430709D00F230340D4
:1006C000042B05D00300181D98429B415B42E4189F
:1006D000230221D50125019B01241D400023002276
:1006E000994622E61F2521006D42281AC1400800C4
:1006F000202A1DD05F35AA1A944023435C1EA341D3
:10070000072503431D400022002D09D00F2200249D
:100710001A401800042AD6D1030065076402220B90
:10072000DB082B4301259946019B00241D40FCE575
:100730000024E2E7802201251203224301991203DB
:10074000120B0D409946044CEFE5C046FF03000034
:10075000FFFFFFFEFE070000FF070000F0B5464662
:10076000D6464F460C03C0B5CD0F4E00610A440F6C
:100770000C43C1005800400D84468A460F001903FF
:10078000500F490A0143C648760DA846DB0FD20038
:10079000844500D1D8E001204340AB4200D1A6E01F
:1007A0006046351A002D00DC05E1002810D10B0051
:1007B000134300D1D7E06B1E002B00D04BE1534612
:1007C0009F1ABA458041641A4042241A01261EE04D
:1007D000B34B9E4248D080231B041943382D00DDC3
:1007E00019E11F2D00DD4CE120230F005B1B1000E1
:1007F0009A409F40E840531E9A41E94007431743FF
:100800005346DF1B611ABA45A44164420C1B230204
:1008100000D4C5E06402650A002D00D1F6E028008E
:1008200000F05CFB0300083B1F2B00DDE9E0202209
:100830003C00D21A9D40D4409F4025439E4200DD9B
:10084000DBE09E1B731C1F2B00DD0AE12022380019
:10085000D21A290097402C009140D8407A1E974127
:10086000DC40002601430F437B0709D00F233B40A8
:10087000042B05D03B1DBB42BF417F42E4191F0042
:10088000230225D5864B01369E4200D1AFE0854B31
:1008900001251C4043466207FF08640276051743A2
:1008A000240B760D1D4000212403230B0C0D7E4AE2
:1008B00024051C431440330523435B00ED075B080C
:1008C0002B43380019001CBC90469946A246F0BD47
:1008D000012543466207FF081743E4081D40704B9B
:1008E0009E4236D024037605240B760DDBE7634663
:1008F000F31A002B00DC94E06046002835D06848ED
:100900008642B1D080273F043943382B00DCFDE01C
:100910000A43170000217A1E9741574457458041EA
:10092000091944420C1923023AD55D4B01369E4207
:1009300000D14BE101225B4B1C407B0817401F4359
:10094000E207174364088FE70800104300D024E74C
:1009500021E723003B4300D1B9E180221203144375
:100960002403240B9FE72E007EE70800104300D1EC
:10097000CAE0581E8446002800D0E7E052445245A1
:10098000804164184042241817000126230207D52D
:100990000226CFE764462C4300D1B3E12C00674622
:1009A0007B0700D062E76307FF081F43012543462A
:1009B000E4081D4093E7002D78D1751C6D056D0D81
:1009C000012D00DCF2E05046801A8245BF41651AD5
:1009D0007F42ED1B8446280200D48CE05046171A53
:1009E000BA4292410C1B5542651B984614E70125FB
:1009F000434600241D40002755E72A4CF61A2C4098
:100A000032E73D0028388540002717E7380000F01E
:100A100065FA203006E70A43170000217A1E974145
:100A2000EEE6002B00D0E5E0731C9C465B055B0DF9
:100A3000012B00DC9FE01A4B9C4500D1C5E05244DD
:100A400052458041641840422418E7075208174372
:100A50006408664608E71248854200D185E01D001B
:100A6000BCE629001F3EF140202B00D17FE0402250
:100A7000D31A9D402F437D1EAF4100240F43002613
:100A80008EE72B000F00203BDF40202D71D040234C
:100A90005D1BA9400A43511E8A4100211743AFE65E
:100AA000FF070000FFFF7FFFFFFF0F80002E3ED0FB
:100AB000B34EB44545D0802636046D423443382DBC
:100AC00000DDA8E01F2D00DD1FE120262700504695
:100AD000761BB740E84007435046B040461EB04141
:100AE000EC403843171ABA4292410C1B5242A41AE6
:100AF000664698468BE6644667462C4300D08BE6F4
:100B0000002500260027EAE61E00ADE61F2B60DC6C
:100B10002027F81A0F00844687401000D84007436A
:100B200060468240501E8241D9401743F5E62600B8
:100B30005046064305D0ED43002DD3D0904EB4452A
:100B4000BDD10C001700664698468DE68C4883425E
:100B50000BD06346D9E6002D00D096E00800104384
:100B600000D1E2E00C0017009846854E7CE6002597
:100B700080E700218EE7230050460343002E00D07B
:100B8000A8E0002B00D1DEE00B00134300D16BE6A0
:100B900052445245804164184042241817002302F1
:100BA00000D4FDE6774B66461C405DE625005046C6
:100BB0000543002ECFD1002D4FD10C00144300D19E
:100BC000A0E00C00170098464EE666460024002779
:100BD00085E61F000800203FF8400700202B00D1C9
:100BE0008EE04020C31A99400A43511E8A410021D9
:100BF000174392E6002E14D126005046064362D0D9
:100C0000DB43002B5CD18718974292416418524213
:100C1000A418664687E650462043441EA04100249F
:100C200060E7574EB4454ED0802636045B423443CD
:100C3000382B00DD7FE01F2B00DD8BE02026270016
:100C40005046F61AB740D84007435046B040461EBB
:100C5000B0410743DC40BF18D6E70D00154300D173
:100C600002E65046801A8245BF41651A7F42ED1B5D
:100C70008446280200D48DE65046171ABA429241A3
:100C80000C1B5242A41A9846EEE50D00154300D104
:100C90006BE750466707C00807438020E40800035D
:100CA000044207D0CD08054204D12C009846D7084D
:100CB00049070F437B0FE4001C43FF00304ED3E590
:100CC0002F4EB445B4D10C0017006646CCE5002782
:100CD0000024E8E5002B39D00B00134300D144E792
:100CE000C008670707438020E40800030442E1D0FE
:100CF000CB080342DED1D70849070F431C00D9E7D0
:100D0000002171E700250027E9E52E002700203E9D
:100D1000F740202D2FD04026751BAC405046204375
:100D2000441EA04100243843DCE68024002524032F
:100D3000134E0027D3E5504620430700781E874115
:100D40000024BF1860E70C0017008DE50C001700A9
:100D50000B4E89E51E002700203EF740202B0CD0CB
:100D60004026F31A9C4050462043441EA0410743AE
:100D70000024BF1848E70024D0E70024F3E7C0466A
:100D8000FF070000FFFF7FFF30B5134D0A034B0044
:100D9000120B5B0DC90F0024AB4210DD0F4CA342B8
:100DA0000FDC80240E4D64032243ED1A1F2D0BDD52
:100DB0000C48C31ADA405442002900D11400200024
:100DC00030BD094BCC18FAE7084CE840A446634410
:100DD0009A400243EFE7C046FE0300001D040000F6
:100DE0003304000013040000FFFFFF7FEDFBFFFF53
:100DF00010B5041E28D000F071F8154B154A1B1AC7
:100E0000D21A1F2A15DD144AD21A94400022240354
:100E10005B05240B5B0D0021100024030A0D240B3D
:100E2000120522430D4C1B05224013435B00590859
:100E300010BD210091400A000B21081AC4405B0537
:100E40002403240B5B0DE6E7002300240022E2E7E5
:100E50001E0400003304000013040000FFFF0F8095
:100E60008446101C62468C46191C634600E0C0464E
:100E70001FB500F0EFF8002801D40021C8421FBDC3
:100E800010B500F049F84042013010BD10B500F037
:100E9000E1F8002801DB002010BD012010BDC04694
:100EA00010B500F0D7F8002801DD002010BD0120AA
:100EB00010BDC04610B500F069F8002801DC002024
:100EC00010BD012010BDC04610B500F05FF800282D
:100ED00001DA002010BD012010BDC0461C210123F5
:100EE0001B04984201D3000C10391B0A984201D30D
:100EF000000A08391B09984201D30009043902A2EB
:100F0000105C40187047C046040302020101010151
:100F10000000000000000000F0B54F464646D646EF
:100F20005C00C0B51F03DB0F9A46174B0E034D0044
:100F300084468046360B6D0DC90F91463F0B640DFC
:100F400001209D4208D09C4201D0A5420BD01CBC80
:100F500090469946A246F0BD63463343F7D1AC4272
:100F6000F5D13A43F3D10120BE42F0D1C845EED1CC
:100F7000514507D0002DEAD163461E433000461E7E
:100F8000B041E4E70020E2E7FF070000F0B5454686
:100F9000DE4657464E46E0B51F033D0B2C4F0E0371
:100FA0004C00AB465D008446360B640DC90F90467D
:100FB0006D0DDB0FBC422AD0254FBD422DD0002C39
:100FC0000FD130430700814678427841C0B2002DEE
:100FD00017D15F463A4314D14B460020002B0AD06C
:100FE00006E0002D02D15846024301D0994218D0A4
:100FF0004842012108433CBC90469946A246AB4674
:10100000F0BD0028F2D00120013B1843F3E7370080
:101010000743D1D002204042EDE75F461743CED0D0
:10102000F8E7AC42E4DC03DA481E01210843E2E7BA
:101030005E45DDD806D000205E45DCD20123481E87
:101040001843D8E7C445D3D80020C445F6D3D2E727
:10105000FF070000F0B54E464546DE4657465C00A9
:10106000E0B51F03DB0F99462A4B0E034D00C90F55
:101070008446360B6D0D8B4690463F0B640D9D42AA
:1010800020D0244B9C4222D0002D12D13043434229
:101090004341DBB2002C1FD0002B0CD04B4601206B
:1010A000013B034318003CBC90469946A246AB4620
:1010B000F0BD002C16D0CB4517D05B46594201231A
:1010C0000B43EFE7310002230143EBD1D9E73900AD
:1010D00002231143E6D1D7E73A43DDD100230028AC
:1010E000E0D0EAE73A43E6D1E7E7A542E5DC05DBF5
:1010F000BE42E2D807D00023BE42D3D259460123D4
:1011000001390B43CEE7C445D7D80023C445F5D3F6
:10111000C8E7C046FF07000010B50400094B186877
:10112000FA218900FEF7F0FF00F020FB002801D033
:10113000012010BD00222100013800F0DBFA002060
:10114000F7E7C0460000002010B5084A13684021A8
:101150000B4313600020FFF7DFFF041E02D00124C1
:10116000200010BD01F0ECFEFAE7C046002002406E
:10117000024A1368013313607047C04644000020E0
:10118000014B18687047C0464400002010B582B07B
:101190000400084B18680849FEF7B6FF4443019461
:1011A00002E0019B013B0193019B002BF9D102B0AE
:1011B00010BDC0460000002040420F0070B5040082
:1011C0000268916803230B40012B10D00023002BF1
:1011D00033D191681A4B194210D0636D102213431A
:1011E0006365A36D0F3A1343A365012026E01368DE
:1011F000DB0701D40023EAE70123E8E79368012134
:101200000B4393600120FFF7C1FFFFF7B9FF050013
:1012100023681B68DB070ED4FFF7B2FF401B0A28C8
:10122000F6D9636D102213436365A36D0F3A134320
:10123000A365012002E0002000E0002070BDC04650
:101240001700008070B5041E00D1E6E0436D002B4E
:1012500031D0636DDB0634D421688B6804221340DF
:101260002FD1626D6E4802400630FF300243626546
:10127000886803220240012A2CD00022002A43D190
:101280006268C020000682422BD08020C0058242C6
:1012900027D080200006824223D00A69920092085B
:1012A0000A61604A11686048014011601168606815
:1012B000014311601EE083655022835401F0ECFC71
:1012C000C7E7636D10221343636500225023E25485
:1012D000012070BD0A68D20701D40022CEE70122A6
:1012E000CCE70A69920092080A6121680A6960687D
:1012F00002430A612168CA6818208243CA602168D3
:10130000CA68A0680243CA60464A1168474801405B
:1013100011601168606B400601431160226891689A
:10132000C90004D490688021490501439160216877
:10133000CA683F480240CA602068C268E1682569FF
:10134000022D40D00B432021615C49030B432C212B
:10135000615C49000B43216B0B43A16989030B437B
:10136000E169C9030B431343C360636AC222FF32BE
:10137000934205D02168CA68A06A03431343CB6037
:101380002123E35C012B20D0E36B012B31D02368B8
:101390001A69D20703D51A6901218A431A612268A2
:1013A000536907218B43536122685369A16B0B4337
:1013B00053610023A365636D03229343023A1343F1
:1013C0006365002085E70423BCE71F33E35C002B43
:1013D00006D12268D16880235B020B43D360D3E738
:1013E000636D202213436365A36D1F3A1343A36506
:1013F000CAE7226813690F490B40136121680A6923
:10140000236C606C0343A06C034313430B6122689D
:10141000136901210B431361C1E7012059E7C0465D
:10142000FDFEFFFF08270140FFFFC3FFFFFFFFFD99
:101430001902FEFF03FCFFFFF8B504000E001700C1
:1014400003689B685B0702D502252800F8BD50237E
:10145000C35C012B3AD001225023C254C369012B33
:1014600032D0FFF7ABFE0500002DEED1636D184AB8
:101470001A4080235B00134363650023A365502259
:10148000A354E36C134ADA62E36C134A1A63E36C05
:10149000124A5A6323681C221A602268536810217A
:1014A0000B4353602268D3680F390B43D360216824
:1014B00040313B003200E06C00F0D8F922689368BC
:1014C00004210B439360C0E70025CDE70225BCE76C
:1014D000FEF0FFFFE51400085B1500086715000823
:1014E0007047000010B5836A5A6D502111422CD10B
:1014F000596D802292000A435A651A68D068C0214B
:101500000901084214D12021595C002910D1116829
:1015100009070DD5916849070ED451680C20814305
:1015200051605A6D0B490A400431FF310A435A6534
:101530001800FFF7D5FF10BD5A6D20210A435A65E8
:101540009A6D1F390A439A65F2E7DB6C5B6B98472B
:10155000F1E7C046FEFEFFFF704710B5806AFFF757
:10156000FBFF10BD704710B5806A436D40221343E6
:101570004365836D3C3A13438365FFF7F3FF10BD6A
:1015800070B504000D005023C35C012B4BD0012229
:101590005023C25403689A6852071AD4234A4968F0
:1015A000914229D0996A2A685203520B0A439A62DF
:1015B0002B685B0316D42B689B0305D51C4A116866
:1015C0008023DB030B43136000225023E2540020EE
:1015D0002AE0436D20221343436500225023C25466
:1015E000012021E0124A116880231B040B43136081
:1015F0000A20FFF7CBFDDEE7996A2A685203520BF7
:10160000914399622B685B0304D5094A1368094921
:101610000B4013602B689B03D6D5054A1368064917
:101620000B401360D0E7022070BDC04601100000DF
:1016300008270140FFFF7FFFFFFFBFFF70B50400D9
:101640005023C35C012B50D001225023C2540268A6
:1016500091684D3B0B40012B0BD00023002B0FD08A
:10166000636D202213436365012000225023E2545E
:1016700070BD1368DB0701D40023EFE70123EDE71A
:10168000636D1B490B400631FF310B436365D66820
:1016900001310E40D3688B43D36022689168802368
:1016A0001B060B439360FFF76BFD050023689A68E8
:1016B000002A0FDAFFF764FD401B0A28F6D9636D94
:1016C00012229343023A1343636500225023E254EB
:1016D0000120CDE7DA681643DE60636D0322934391
:1016E000023A134363650020BFE70220C0E7C0460B
:1016F000FDFEFFFF70B5002811DB8308144DC033D9
:101700009B005C5903221040C000FC32160086404A
:10171000B44389010A40824022435A5170BDC0B28D
:101720000F230340083B9B0806339B00094A94465D
:1017300063445D6803221040C000FF242200824001
:10174000954389010C4084402C435C60E6E7C04629
:1017500000E100E000ED00E01F2318401E3B834045
:10176000014A13607047C04600E100E001380A4BAF
:1017700098420FD8094A50600948036A1B021B0AA5
:10178000C02109060B4303620023936007331360F3
:10179000002070470120FCE7FFFFFF0010E000E0A1
:1017A00000ED00E070B5066C1C25446C254001245A
:1017B000AC407460046863608368102B04D00368D5
:1017C00099600368DA6070BD03689A600368D96045
:1017D000F9E7000070B5041E3DD005681F4BE818FE
:1017E0001421FEF791FC800060641D4B23640222EB
:1017F0002523E2542B681B4A1A40A368E1680B4377
:1018000021690B4361690B43A1690B43E1690B43F8
:10181000216A0B4313432B608023DB01A2689A42A9
:1018200010D0114B19681C22656C15400F20A84080
:10183000814319601968606C024060689040020042
:101840000A431A600023E36301212522A154013ACF
:10185000A354002070BD0120FCE7C046F8FFFDBF87
:10186000000002400F80FFFFA800024070B5040096
:101870002420205C012832D0012524202554013069
:10188000205C012804D000222423E254022070BDF1
:101890000135243025540020E0632568286801269E
:1018A000B04328602000FFF77DFF236B002B0BD097
:1018B000226813680E210B4313602268136801210C
:1018C0000B4313600020E2E72268136804218B4376
:1018D00013602268136806310B431360EDE70220A2
:1018E000D5E770B5036C1968046825681C23426C41
:1018F000134004229A400A4214D06A0712D5236882
:101900009B0603D42368042293432360016C1C22AA
:10191000436C1A40042393404B60036B002B00D0B0
:10192000984770BD02229A400A421AD0AA0718D5D9
:1019300023689B0606D423680A2293432360093A4E
:101940002523C254016C1C22436C1A40022393408D
:101950004B6000222423C254C36A002BE1D0984775
:10196000DFE708229A400A42DBD02B07D9D523684B
:101970000E2293432360016C0E32436C1A40012304
:101980001C0094404C60C3632522835400222333FF
:10199000C254436B002BC4D09847C2E7F0B5C6468B
:1019A00000B5002388E0DF080837BF003E58072550
:1019B0001D40AD000F22AA4096430A69AA401500B7
:1019C00035433D5088E085685F000326BE40B5433F
:1019D000CE68BE40354385604568A5432C004A6803
:1019E0001609012535409D402C43446005685E0082
:1019F00003242700B740FF433D404A681440B440E9
:101A00002C430460C4683C408D68B5402C43C460DE
:101A10004A68D2004FD53B4D6C6B012634436C6352
:101A20009C08A51CAD00384EAE5903251D40AD00E5
:101A30000F27AF40BE43A027FF05B8425AD0334F0F
:101A4000B84259D0324FB84252D00627AF403D007D
:101A500035430234A4002C4EA5512E4C2568424635
:101A6000D44326002E404A68D20302D5424615438D
:101A70002E00284D2E606D682E0026404A68920385
:101A800002D5424615432E00224D6E60AD682E00F1
:101A900026404A68D20202D5424615432E001D4D0B
:101AA000AE60ED682C404A68920202D542462A4355
:101AB0001400184AD46001330A681400DC401DD0B9
:101AC00001249C4022409046F5D04D68022D00D163
:101AD00069E7122D00D166E74D686E1E012E00D811
:101AE00071E7112D00D16EE7122D00D07EE76AE775
:101AF0000227ABE70027A9E70127A7E704BC904628
:101B0000F0BDC0460010024000000140000400503B
:101B10000008005000040140002A01D18162704792
:101B20008161FCE74369594041617047704700009B
:101B300010B5054B5B69184200D110BD024B5861CE
:101B4000FFF7F4FFF9E7C0460004014070B5041E3A
:101B500043D02E23C35C002B31D002222E23E2542B
:101B60002568EB68606801282FD080221204A16AE2
:101B700091422AD061691A4A914201D0194A134010
:101B8000194A1340A2680243266A3243666A324306
:101B9000A66A3243134301281AD0802212049642C7
:101BA00016D00F4A914204D0A2691143E269114351
:101BB0000B43EB6001222E23E254002070BD002273
:101BC0002D33C25401F02AF9C7E71E229343D1E70F
:101BD000E268206902431343E3E70120EEE7C046D1
:101BE000FFFF00003F1FFFFFF8F119FF70B52E2522
:101BF00002234355104C266880239B053343236002
:101C00000468E66880231B033343E3600668B46816
:101C100001231C43B460066834691C4334610468C2
:101C2000A16101684A6101680A69042422430A61CA
:101C30004355002070BDC046000401407047704706
:101C40007047704770477047704710B504000368CD
:101C50001A68D20702D59A68D2072AD423681A686C
:101C6000920702D59A68920728D423681A68520707
:101C700002D59A68520727D423681A68120702D53A
:101C80009A68120726D423681A68D20602D59A6881
:101C9000D20625D423681A68920602D59A6892065D
:101CA00024D423681A68520602D59A68520623D4AF
:101CB00010BD01225A60FFF7C1FFCFE702225A6030
:101CC0002000FFF7BCFFD0E704225A602000FFF796
:101CD000B7FFD1E708225A602000FFF7B2FFD2E732
:101CE00010225A602000FFF7ADFFD3E720225A6090
:101CF0002000FFF7A8FFD4E740225A602000FFF73A
:101D0000A3FFD5E710B51F4BD9680C230B40082B58
:101D100033D00C2B11D0042B09D01A4B5A68520B1C
:101D200007231340013380200002984010BD154B5B
:101D30001B68DB0623D51448F8E78A0C0F231340F1
:101D4000124AD05C890D0323194001310D4BDB6829
:101D5000DB0308D40B4B1B68DB0609D50A4B584341
:101D6000FEF7D2F9E2E70A4B5843FEF7CDF9DDE77B
:101D7000084B5843FEF7C8F9D8E70548D6E70548A9
:101D8000D4E7C0460010024000093D00B43300080B
:101D900000127A000024F400F0B583B0041E00D1D4
:101DA00062E2B24BDA680C251540DE6880235B02E4
:101DB0001E400368DB0736D5082D2CD00C2D28D00B
:101DC000636880225202934255D0A022D2029342ED
:101DD00058D0A64B1A68A6490A401A601A68802192
:101DE00049020A400192019A1A68A2490A401A60FF
:101DF0006368002B52D0FFF7C3F907009B4B1B68A9
:101E00009B0310D4FFF7BCF9C01B6428F6D903204C
:101E10002BE2002ED4D0954B1B689B0303D563683F
:101E2000002B00D123E223689B076CD5E3689A0658
:101E300005D58E48026820210A4302608B43042D99
:101E40003CD00C2D38D0002B00D1B0E087490A6877
:101E50000920824313430B60FFF792F90600834B7E
:101E60001B685B0700D599E0FFF78AF9801B022801
:101E7000F5D90320F9E17D4A116880235B020B4309
:101E80001360B5E7794B19688022D2020A431A60C1
:101E90001968802252020A431A60A9E7FFF770F915
:101EA0000700724B1B689B03BDD5FFF769F9C01B88
:101EB0006428F6D90320D8E1002EC4D16B4A1268F9
:101EC000520702D5002B00D1D3E1684E72686A49EF
:101ED0000A40216909020A437260326809218A4373
:101EE00013433360FFF70EFFF26812090F2313400C
:101EF000624AD35CD840624B18600020FFF70CF9AF
:101F0000002800D0B1E12368DB062CD5002D61D17B
:101F1000564B1B689B0503D5A369002B00D1AAE192
:101F2000524A536857490B40216A0B435360536828
:101F30001B021B0AE16909060B435360236A590B14
:101F4000013180231B028B40D16809090F220A400E
:101F50004A498A5CD3404A4A13600020FFF7DCF804
:101F6000002800D081E123681B0700D48EE063695C
:101F7000002B68D03D4A136D01210B431365FFF719
:101F8000FFF80600394B1B6D9B0700D57EE0FFF77D
:101F9000F7F8801B0228F5D9032066E133494B6826
:101FA000354A13402269120213434B60ABE72F4AB4
:101FB000136801218B431360FFF7E2F806002B4BF7
:101FC0001B685B079FD5FFF7DBF8801B0228F6D95B
:101FD00003204AE1A369002B22D0244A1168802300
:101FE0005B000B431360FFF7CBF806001F4B1B6829
:101FF0009B0506D4FFF7C4F8801B0228F6D90320FE
:1020000033E11A4A53681F490B40216A0B4353605E
:1020100053681B021B0AE16909060B435360A2E7E0
:10202000124A136818490B401360FFF7A9F806001D
:102030000E4B1B689B0596D5FFF7A2F8801B022864
:10204000F6D9032011E1094A136D01218B43136571
:10205000FFF796F80600054B1B6D9B0716D5FFF79B
:102060008FF8801B0228F6D90320FEE00010024002
:10207000FFFFFEFFFFFFFBFFFFE0FFFFA4330008B1
:1020800000000020FF1FFFFFFFFEFFFF23685B072C
:1020900078D57D4B9B6BDB002CD47B4A916B8023E6
:1020A0005B050B4393630126784B1B68DB0523D547
:1020B000A36880225200934232D0002B37D1724B5A
:1020C0001A6D73490A401A651A6D72490A401A65F9
:1020D000A368002B45D0FFF753F807006A4B1B6D30
:1020E0009B054DD4FFF74CF8C01B6B4B9842F5D9BC
:1020F0000320BAE00026D7E7644A116880235B001A
:102100000B431360FFF73CF80700604B1B68DB05CF
:10211000CED4FFF735F8C01B6428F6D90320A4E01D
:10212000594A116D80235B000B431365D0E7A02251
:10213000D200934209D0544B1A6D55490A401A6592
:102140001A6D54490A401A65C2E74F4B196D013A9E
:10215000FF3A0A431A65196D802252000A431A6534
:10216000B6E7FFF70DF80700474B1B6D9B0507D53A
:10217000FFF706F8C01B484B9842F5D9032074E0DE
:10218000012E1AD0636A002B00D176E00C2D4FD0BF
:10219000022B18D03C4A136840490B401360FEF7ED
:1021A000EFFF0400384B1B689B013FD5FEF7E8FFAB
:1021B000001B0228F6D9032057E0334A936B3849B5
:1021C0000B409363DEE7304A136834490B401360D9
:1021D000FEF7D6FF05002C4B1B689B0106D5FEF7CA
:1021E000CFFF401B0228F6D903203EE02649CB68EA
:1021F0002C4A1340A26AE06A0243206B0243134355
:10220000CB600A6880235B0413430B60FEF7B8FFC2
:1022100004001D4B1B689B0106D4FEF7B1FF001B99
:102220000228F6D9032020E000201EE000201CE058
:10223000012B24D0144BDA6880235B021340A16A7F
:102240008B4201D0012010E0F0239B031340E16A90
:102250008B4201D0012008E0C0231B041A40236BED
:102260009A420ED0012000E0012003B0F0BD012011
:10227000FBE70120F9E70120F7E70020F5E701205F
:10228000F3E70020F1E7C046001002400070004074
:10229000FFFEFFFFFFFBFFFF88130000FFFFFFFEB5
:1022A000FFFFFFEFFFFF02FF70B504000D000028E5
:1022B00000D1BAE05F4B1A68012313408B420BD266
:1022C0005C490B68012293432B430B600B681A4057
:1022D000954201D00120A7E023689B0706D5564A06
:1022E000D368F0218B43A1680B43D3602368DB07DD
:1022F00064D56368022B25D0032B29D0012B2DD068
:102300004D4A1268920500D491E04B49CA680320F7
:1023100082431343CB60FEF733FF06006368022B52
:1023200022D0032B2ED0012B3AD0434BDB680C225A
:102330001A4243D0FEF724FF801B404B9842F4D949
:10234000032071E03C4A12689203DED401206BE066
:10235000394A12689201D8D4012065E0364A1268E1
:102360005207D2D401205FE0334BDA680C231340CC
:10237000082B23D0FEF704FF801B304B9842F3D983
:10238000032051E02C4BDA680C2313400C2B15D0A2
:10239000FEF7F6FE801B294B9842F3D9032043E059
:1023A000254BDA680C231340042B07D0FEF7E8FE18
:1023B000801B224B9842F3D9032035E01D4B1A684D
:1023C000012313409D420BD21A490B68012293430B
:1023D0002B430B600B681A40954201D0012023E08B
:1023E00023685B0706D5144AD36815490B40E1689A
:1023F0000B43D36023681B0707D50F49CB68114AED
:1024000013402269D2001343CB60FFF77BFC0A4BD9
:10241000DA6812090F2313400B4AD35CD8400B4BE8
:1024200018600020FEF778FE70BD0120FCE7012057
:10243000FAE7C04600200240001002408813000066
:10244000FFF8FFFFFFC7FFFFA433000800000020D4
:1024500070B5040003689B064CD55B4B9B6BDB009F
:1024600000D571E0584A916B80235B050B43936361
:102470000125564B1B68DB0568D5534B1968C023F3
:102480009B03194062681340994206D0C0239B0207
:1024900011001940994200D16DE04B4B1B6DC021DA
:1024A00089020B4015D00A40934212D023689B0644
:1024B0000FD5454B186D464A02401E6D8021090319
:1024C00031431965196D434E314019651A65C305CD
:1024D00058D46268C0239B0211001940994260D011
:1024E00039490B6DC02292026068024013430B65AC
:1024F000012D60D023689B0706D5334AD36C0C218D
:102500008B43A1680B43D36423685B0706D52E4A2F
:10251000D36C31490B40E1680B43D36423681B073C
:1025200006D5294AD36C2D490B4021690B43D3644E
:1025300023681B0645D5244AD36C29490B406169A1
:102540000B43D364002070BD002592E71F4A116839
:1025500080235B000B431360FEF712FE06001B4B4B
:102560001B68DB0500D588E7FEF70AFE801B6428A0
:10257000F5D90320E7E7144B1B689B0300D48CE7D5
:102580000120E0E7FEF7FCFD06000F4B1B6D9B05ED
:102590009FD4FEF7F5FD801B124B9842F5D903201E
:1025A000D1E709490B6810480340C020800302406E
:1025B0001A430A6094E70A008B6B0C490B40936343
:1025C00098E70020BFE7C0460010024000700040BE
:1025D000FFFFFCFFFFFFF7FFFFF3FFFFFFCFFFFF52
:1025E000FFFFF3FF88130000FFFFCFFFFFFFFFEFA8
:1025F00003688022D205904215D0104A904212D032
:102600008022D205904213D00C4A904210D08022F2
:1026100093430A69134303608B68C3620B68836248
:10262000012343617047702293434A681343E7E7ED
:10263000034A1340CA681343E9E7C0460008014053
:10264000FFFCFFFF30B5036A012293430362036A74
:10265000446882697325AA430D682A430225AB4367
:102660008D682B43446082614A684263036230BDD7
:1026700030B5036A102293430362036A4568826996
:10268000074C22400C68240222432024A3438C6878
:1026900024012343456082614A688263036230BD3E
:1026A000FF8CFFFF30B5036A0A4A13400362036AD6
:1026B0004568C2697324A2430C682243064C234038
:1026C0008C68240223434560C2614A68C263036286
:1026D00030BDC046FFFEFFFFFFFDFFFF30B5036AC0
:1026E0000A4A13400362036A4568C269084C2240E3
:1026F0000C6824022243074C23408C6824032343A4
:102700004560C2614A680264036230BDFFEFFFFFAB
:10271000FF8CFFFFFFDFFFFF30B5036A046A01256E
:10272000AC4304628469EF35AC43120122430A24AE
:10273000A34319438261016230BD000030B5036AD2
:102740001024A34303628469036A054D2C401203DD
:102750002243A024A343090119438261016230BDD1
:10276000FF0FFFFF0B00816870229143194307237D
:10277000194381607047000030B58468034D2C40D8
:102780001B021A4311432143816030BDFF00FFFF4C
:1027900010B51F23194001248C40036AA343036230
:1027A000036A8A401A43026210BD70B5041E14D039
:1027B0003923C35C002B0AD0392502236355211D20
:1027C0002068FFF715FF01236355002070BD00222C
:1027D0003833C25400F0AAFCEEE70120F6E70268A5
:1027E000D36801210B43D3600268916807230B4033
:1027F000062B03D0136801210B43136000207047A0
:10280000704770B5041E14D03923C35C002B0AD066
:10281000392502236355211D2068FFF7E9FE0123B6
:102820006355002070BD00223833C254FFF7E8FF23
:10283000EEE70120F6E710B50400042921D009D9FC
:10284000082924D00C290CD10268D3681020034336
:10285000D36006E0002904D10268D3680220034354
:10286000D36001222068FFF793FF22689168072355
:102870000B40062B03D0136801210B43136000208B
:1028800010BD0268D36804200343D360E9E70268FF
:10289000D36808200343D360E3E7000070B5040069
:1028A0000D003823C35C012B69D001213823C154AA
:1028B00001310133C154042A37D019D9082A4AD02A
:1028C0000C2A2AD129000068FFF708FF2268D16985
:1028D00080231B010B43D3612268D36929490B4034
:1028E000D3612168CB69EA6812021343CB6114E01B
:1028F000002A12D129000068FFF7A4FE226893691C
:1029000008210B4393612268936904398B439361D7
:1029100022689369E9680B43936101223923E254E9
:102920000022013BE254002070BD29000068FFF73F
:102930009FFE2268916980231B010B4393612268EB
:10294000936910490B40936121688B69EA68120210
:1029500013438B61E1E729000068FFF7A3FE2268BB
:10296000D36908210B43D3612268D36904398B43AF
:10297000D3612268D369E9680B43D361CDE70220B4
:10298000D2E7C046FFFBFFFF10B504003823C35C4D
:10299000012B66D001223823C25401320133C254C4
:1029A000026893683048034093600B68402B4ED018
:1029B00015D9602B41D021D9702B2BD080229201C8
:1029C000934232D1CB684A6889682068FFF7D4FE09
:1029D000226891688023DB010B43936025E0102B74
:1029E00007D004D9202B04D0302B02D01DE0002BBF
:1029F0001BD119002068FFF7B5FE16E0502B14D14B
:102A0000CA6849682068FFF787FE50212068FFF7F1
:102A1000A9FE0AE0CB684A6889682068FFF7ACFE27
:102A20002268936877210B43936001223923E25493
:102A30000022013BE254002010BDCA6849682068AA
:102A4000FFF77CFE60212068FFF78CFEEDE7CA6887
:102A500049682068FFF760FE40212068FFF782FE8A
:102A6000E3E70220E8E7C0468800FFFF70477047B1
:102A700070477047704710B5040003681A699207E1
:102A80000FD5DA6892070CD5032252421A6101234E
:102A9000037603689B699B0755D0FFF7E9FF002386
:102AA000237623681A69520712D5DA6852070FD5C0
:102AB000052252421A610223237623689A69C023B1
:102AC0009B001A4245D02000FFF7D2FF0023237657
:102AD00023681A69120710D5DA6812070DD5092282
:102AE00052421A61042323762368DB699B0737D09F
:102AF0002000FFF7BDFF0023237623681A69D20662
:102B000012D5DA68D2060FD5112252421A61082373
:102B100023762368DA69C0239B001A4227D020005D
:102B2000FFF7A6FF0023237623681A69D20702D590
:102B3000DA68D20722D423681A69520602D5DA6805
:102B4000520622D410BDFFF792FF2000FFF791FF3D
:102B5000A5E72000FFF78BFF2000FFF78AFFB5E70E
:102B60002000FFF784FF2000FFF783FFC3E720006A
:102B7000FFF77DFF2000FFF77CFFD3E702225242E0
:102B80001A612000FFF772FFD5E7412252421A6115
:102B90002000FFF76FFFD5E7F0B5CE46474680B57A
:102BA0003823C35C012B20D038250127475539260F
:102BB0000223835504686268A368984670239A4389
:102BC0000B681A439146802342469A431300496892
:102BD0000B434A4662600268936087550023435561
:102BE00000200CBC90469946F0BD0220F9E7000099
:102BF00000B583B008220021684600F09FFB2348FF
:102C0000234B03600122C263142303648C334364A7
:102C1000002383648021C90541608360836302616E
:102C2000C36020214254013143548362C221FF31E9
:102C300041629639FF394254033242618022520187
:102C4000026383614363C361FEF7FCFA002814D179
:102C50000123009380235B01019369460B48FEF733
:102C60008FFC00280CD10B4B009369460748FEF7F8
:102C700087FC002807D103B000BD00F05FF9E7E74B
:102C800000F05CF9EFE700F059F9F4E7900000205C
:102C9000002401401000001030B587B00400142259
:102CA000002101A800F04AFB1B4B22689A4201D088
:102CB00007B030BD194B5A6B8025AD002A435A63CB
:102CC000D96A01221143D962DB6A1A400092009B43
:102CD000112301930E3B029301A9A020C005FEF72A
:102CE0005DFE0F480F4B0360002343608360C360A9
:102CF0008022026145618022120182612022C2612C
:102D00000362FEF767FD002803D1054BE3649C6274
:102D1000CEE700F013F9F8E700240140001002406C
:102D2000480000200800024000B583B0094A116B3A
:102D3000012319431163126B13400193019B00227D
:102D400000210920FEF7D6FC0920FEF705FD03B09F
:102D500000BDC0460010024070B588B014220021AA
:102D600003A800F0EBFA1B4BD96A04221143D96285
:102D7000D96A0A400192019ADA6A01242243DA628E
:102D8000DB6A23400293029B9026F600A025ED0506
:102D9000012231002800FEF7BFFE8023DB010393F0
:102DA0000D4B0493059403A90C48FEF7F7FD039619
:102DB000049405940023069303A92800FEF7EEFD72
:102DC000002200210720FEF795FC0720FEF7C4FC37
:102DD00008B070BD00100240000021100008005033
:102DE00010B50B480B4B036000234360E022120137
:102DF0008260094A426103628022D2034262836296
:102E0000FEF7A4FE002800D110BD00F097F8FBE704
:102E1000EC000020007C0040FFFF000010B50268BD
:102E2000094B9A4200D010BD084A916B80231B06C3
:102E30000B439363002200210D20FEF75BFC0D2065
:102E4000FEF78AFCEFE7C046007C0040001002401D
:102E500010B598B0342200210BA800F06FFA1422AC
:102E6000002106A800F06AFA18220021684600F046
:102E700065FA16490B68164A1A4080231B01134352
:102E80000B6002230B9301220E920F320F921493C8
:102E9000002415948023DB0216938023DB03179311
:102EA0000BA8FEF779FF0F2306930C3B07930894BA
:102EB00009940A94012106A8FFF7F6F980230093EC
:102EC00005946846FFF7C4FA18B010BD00700040C2
:102ED000FFE7FFFF10B5FEF737F9FFF7B9FFFFF780
:102EE0003BFFFFF721FF00F067F9FFF779FF00F0E4
:102EF000DFF8FFF77DFE04210B48FFF79CFC0B4831
:102F0000FFF76DFC802189010A000948FEF76EFE7B
:102F1000084C00212000FEF791FB08220649200002
:102F2000FEF78AFAFEE7C0461C0100205801002087
:102F3000EC000020900000202000002070470000DE
:102F4000054B5A6B01210A435A63996B8022520543
:102F50000A439A637047C046001002407047FEE77C
:102F60007047704710B5FEF703F910BD10B50C4B54
:102F70001B68996A0B4A914208D89A6A520009491B
:102F80008A420AD89A6A52009A6201E001229A6241
:102F90008020C001FEF7CCFD10BD01229A62F7E748
:102FA0001C010020FEFF000010B50248FEF799FC4E
:102FB00010BDC04648000020D0B5194B1C68194B05
:102FC0005B68E362184B1B88002B02D10A21174A69
:102FD0001180E26A934203D90A214942134A1180BF
:102FE000124A12889B18104A1380E06AFDF700FF0E
:102FF00000220F4BFDF732F906000F00094B18684D
:10300000FDF7F6FE02000B0030003900FDF726F94F
:10301000FDF706F9A0630748FEF717FED0BDC046CE
:103020001C01002020000020400000204200002061
:103030000000203FEC00002010B58021C900A02036
:10304000C005FEF76FFD0248FFF715FD10BDC04635
:1030500058010020104B1968802252000A431A6060
:10306000DA680E490A40DA601A680D490A401A60A7
:103070009A6801218A439A601A680A490A401A60CC
:10308000DA6809490A40DA6000221A6180221205D2
:10309000064B9A607047C046001002400C40FF8803
:1030A000F6FFF6FEFFFFFBFFFFFF02FF00ED00E073
:1030B00000B587B01022002102A800F03FF90822D5
:1030C0000021684600F03AF91648174B03601023B8
:1030D0004360002383608022D200C260036180339A
:1030E0004361FFF762FB002813D180235B01029349
:1030F00002A90C48FFF748FC00280DD100230093DB
:10310000019369460748FFF747FD002807D107B03C
:1031100000BDFFF713FFE8E7FFF710FFEEE7FFF74B
:103120000DFFF4E7580100200008014010B50368C6
:103130008022D205934203D00B4A934206D010BDA1
:103140000A4A936B01210B439363F8E7074A536BD9
:1031500004210B435363002200211420FEF7CAFA16
:103160001420FEF7F9FAEAE70008014000100240D7
:1031700010B586B004001422002101A800F0DEF88A
:1031800022688023DB059A4201D006B010BD094AAF
:10319000D16A01231943D162D26A13400093009B84
:1031A000022301930293059301A9A020C005FEF715
:1031B000F5FBEAE70010024000B58BB010220021B9
:1031C00006A800F0BBF80822002104A800F0B6F819
:1031D00010220021684600F0B1F826488023DB0564
:1031E00003601023436030338360234BC3600023AC
:1031F000036180334361FFF7D8FA00282AD1802386
:103200005B01069306A91B48FFF7BEFB002824D1EB
:103210001848FFF7F6FA002822D120230493002350
:10322000059304A91348FFF7B7FC00281BD16023BE
:103230000093124B019300230293039304226946E7
:103240000C48FFF72BFB002810D10A48FFF790FF2E
:103250000BB000BDFFF772FED1E7FFF76FFED7E7B7
:10326000FFF76CFED9E7FFF769FEE0E7FFF766FEC0
:10327000EBE7C0461C010020FF030000FF07000031
:103280001348854604200168090E1F22914205D18A
:10329000104801210160104800210160002103E075
:1032A0000E4B5B58435004310D480E4B42189A4266
:1032B000F6D30D4A02E00023136004320B4B9A420E
:1032C000F9D3FFF7C7FE00F015F8FFF703FEFEE79E
:1032D000000800203410024000000140C8330008FC
:1032E00000000020040000200400002094010020C1
:1032F000FEE7000070B500260C4D0D4C641BA410B9
:10330000A64209D1002600F021F80A4D0A4C641BA0
:10331000A410A64205D170BDB300EB589847013602
:10332000EEE7B300EB5898470136F2E7C0330008E8
:10333000C0330008C0330008C433000803008218FB
:10334000934200D1704719700133F9E7F8B5C046D0
:10335000F8BC08BC9E467047F8B5C046F8BC08BC2F
:043360009E467047CE
:103364004C0400080C0300080C03000808030008C0
:1033740024040008240400081604000808030008B4
:1033840024040008160400082404000808030008A4
:103394002C0400082C0400082C0400083006000843
:1033A40000000000000000000102030406070809F1
:0C33B400030406080C1018203000000074
:0433C000E900000818
:0433C400C10000083C
:0433C80000002000E1
:04000005080032813C
:00000001FF
